:020000021000EC
:10B0000000800020B57A0200F57A0200F77A02008B
:10B010000000000000000000000000000000000030
:10B02000000000000000000000000000F97A0200AB
:10B030000000000000000000FB7A0200FD7A020020
:10B04000C13F0200FF7A0200214B0200FF7A02009A
:10B05000FF7A02000000000025420200FF7A020091
:10B06000FF7A0200FF7A0200FF7A0200FF7A0200F4
:10B07000FF7A0200FF7A0200FF7A0200FF7A0200E4
:10B08000FF7A020059690200FF7A0200FF7A02008B
:10B09000356A0200FF7A0200357A0200FF7A020068
:10B0A000FF7A0200FF7A02000000000000000000AA
:10B0B0000000000000000000000000000000000090
:10B0C00010B5064C2378002B07D1054B002B02D07E
:10B0D000044800E000BF0123237010BDC82E0020EB
:10B0E00000000000D4830200084B10B5002B03D0F1
:10B0F0000749084800E000BF07480368002B00D15B
:10B1000010BD064B002BFBD09847F9E7000000006C
:10B11000CC2E0020D4830200A02E002000000000CE
:10B12000164B002B00D1144B9D46402292029A1AD6
:10B13000924600218B460F461348144A121A00F01B
:10B1400067F80F4B002B00D098470E4B002B00D018
:10B1500098470020002104000D000D48002802D06F
:10B160000C4800E000BF00F02DF82000290000F09E
:10B17000C7F800F011F8C046000008000080002069
:10B180000000000000000000C82E0020A4400020A5
:10B190000000000000000000084B10B50400002B68
:10B1A00002D0002100E000BF054B1868836A002B25
:10B1B00000D09847200000F033F8C046000000009F
:10B1C000287F02000E4B70B500251E000D4CE41ABE
:10B1D000A410A54204D0AB00F35898470135F8E716
:10B1E0000CF096FE084B00251E00084CE41AA41033
:10B1F000A54204D0AB00F35898470135F8E770BD7D
:10B20000982E0020982E0020982E00209C2E0020A2
:10B2100003008218934202D019700133FAE7704795
:10B22000FEE7C04610B5084B1A68002907D1032471
:10B23000A2431A604368002B00D0984710BD012438
:10B24000A24301342243F4E7E42E00200422024BFF
:10B2500000201A607047C046E42E0020F0B50E4D65
:10B2600006002C6883B00020670702D50A30A707C4
:10B2700001D503B0F0BD012792B23C432C600748D2
:10B28000009313000A0031000BF07EF80028F0D183
:10B290002B681F432F60ECE7E42E0020A42E002033
:10B2A000F8B50F4D06002C680020630702D50A3060
:10B2B000A30700D5F8BD012789B213003C430A005B
:10B2C000084831002C600BF0BBF82B68002803D134
:10B2D0001F432F600020EDE7BB432B60EAE7C04629
:10B2E000E42E0020A42E002048DF70477047C0469F
:10B2F00010B500F077F810BD10B500F093FC10BD4C
:10B3000010B5214B21491A68214BC046C046C046A2
:10B31000C046C046C046C046C0468A4200D0C0466D
:10B32000013BF2D108F006FF00231A4A0521002054
:10B330000BF000FE002801D00CF05EF8164A0A213E
:10B3400008200BF037FA002801D00CF055F800F077
:10B3500031FB00F0E5F900F029F800F03DF80F4866
:10B360000F4B03600F4B43600F4B836000F04CF8B2
:10B3700001F0DEFE0BF0B2FAFFF7B6FF0028F9D0BD
:10B380000CF03AF8F6E7C046942E00200024F400B2
:10B3900020A10700E82E0020782F0020602F002039
:10B3A000F1B20100F9B20100EDB201000022064B3A
:10B3B000064807491A60585006495A50A1220121EF
:10B3C000D20099507047C04600000140FFFF59006D
:10B3D000040500000C0500000122014B1A607047B3
:10B3E000000001408022054BD2009A58D20703D5B5
:10B3F000C0220349D20099507047C0460000014066
:10B400003546526E7047C046164B18600368002BD5
:10B4100015D04368002B17D08368002B19D0C36860
:10B42000002B1BD00369002B06D04369002B00D0F2
:10B4300070470D4B4361FBE70B4B0361F5E70A4B8C
:10B4400003604368002BE7D1074B43608368002B00
:10B45000E5D1054B8360C368002BE3D1024BC36089
:10B46000E0E7C0466430002005B40100F8B54F465F
:10B470004646C0B40E000500724930000CF038FC9E
:10B480000C003C2120000CF033FC2971E12120004C
:10B4900009010CF02DFC08003C210CF0A3FBE1217C
:10B4A0006871090120000CF09DFB6649A87130000D
:10B4B0000CF098FBB623FA246E265B0098466A3B94
:10B4C000E400FF3B87B22C80FF36994613E06421ED
:10B4D00020000CF00DFC89B2002919D0484620400C
:10B4E000434258416E30FF30874216DB0134381A30
:10B4F000A4B287B22C80C821200049000CF0F8FBD0
:10B5000089B20029E3D1B74233DDB7204000EDE72F
:10B51000474502DD6E20FF30E8E70023AB700333C0
:10B520002340642120001E000CF0E2FB89B20029B8
:10B5300045D1FF22002301261F2414E01100062B11
:10B5400000D819003140611A8F4233D31000062B06
:10B5500000D818003040201A0133381ADBB201320B
:10B5600087B2AB70D2B2012BE8D11B2F22D91C209D
:10B57000F2E7A970FF22002301261F2414E0110026
:10B58000062B00D819003140611A8F4212D31000E7
:10B59000062B00D818003040201A0133381ADBB2CD
:10B5A000013287B2AB70D2B2012BE8D11C2F01D986
:10B5B0001D20F2E7EF700CBC90469946F8BD002EB6
:10B5C0001FD0FF21002301261F2414E00A00062BB0
:10B5D00000D81A003240A21A9742EBD30800062B7B
:10B5E00000D818003040201A0133381ADBB201317C
:10B5F00087B2AB70C9B2012BE8D11B2FDAD91C205E
:10B60000F2E7FF2201241F2115E01300062E00D8C7
:10B6100033002340CB1A9F42CCD31000062E00D813
:10B6200030002040081A731CDBB21E00381A0132A9
:10B6300087B2AB70D2B2012EE7D11C2FBAD91D2030
:10B64000F1E7C0468051010070B52B4B2B4E1A68B4
:10B650003568511C1960002D4DD0294C2000FFF792
:10B6600005FFA3780133A370E3780133E370254B22
:10B670002A681868411C19609047234D62796B79DC
:10B680009A4206D033685A68204B1868411C1960EA
:10B690009047A279AB799A4207D01D4B326818685F
:10B6A0009268811C013019609047E278EB789A42E9
:10B6B00006D03368DA68174B1868411C1960904748
:10B6C000A278AB789A4206D033681A69124B186890
:10B6D000411C1960904722882B889A4206D0336813
:10B6E0005A690E4B1868411C1960904708222100C6
:10B6F00028000CF0FCFB70BD6C3000206430002092
:10B70000602E00202C3000205C30002068300020AB
:10B7100030300020283000205830002054300020E5
:10B7200001220C4B10B501211A600B480B4A0BF09B
:10B7300099FC00280AD180210022090208480BF058
:10B74000ABFC002801D00BF057FE10BD0BF054FEEF
:10B75000F1E7C0466C3000202C7F020049B60100A2
:10B760003430002010B5074B074C19682000FFF754
:10B770007DFEA37820000133A370E3780133E370EA
:10B7800010BDC0466C300020602E002010B5064968
:10B790000CF028FA07210CF0ABFA481D07210CF039
:10B7A000A7FAC8B210BDC04680510100014B18680D
:10B7B0007047C0466C30002076DF70477ADF7047F4
:10B7C0007CDF7047A8DF704767DF70473CDF70475A
:10B7D0007047C04610B50BF00FFE10BD10B5040049
:10B7E0000AF090FE200002F041FD10BD10B50400EB
:10B7F00084B003F0F5FC200007F0A0F8200003F06F
:10B800009BFC200002F050FA2388112B46D01FD950
:10B81000512B2CD0552B12D03A2B10D0200002F0F7
:10B82000C5FC2100244802F02FFE2100234800F02F
:10B8300029FE2100224800F0C3FA04B010BDA08800
:10B840001321FFF7B9FF0028E8D00BF0D5FDE5E79D
:10B85000022B29D0102BE1D1072001F0DBFF0028BB
:10B8600001D00BF0C9FDA288164B1A80D6E7A37948
:10B87000002BD3D0A27B043A022ACFD8023B5A42F3
:10B8800053416A4601331370C1235B009380A08843
:10B890006946FFF797FF0028C0D0D6E7002001F0E7
:10B8A000B9FF0028BAD0D0E7A0880021FFF78CFFAD
:10B8B0000028B3D0C9E7C04670300020983C002073
:10B8C000E03C00206C2E002000B5037883B00E2BE6
:10B8D00005D81B4A9B00D3589F4607F0C3F803B016
:10B8E00000BD80680028FAD00BF086FDF7E780885D
:10B8F00007F0ECF81128F5D1F1E700200BF07CFD02
:10B90000EDE742890F4B9A42E9D10121408807F0C7
:10B9100097F80AE0002301A90B70408807F09EF811
:10B92000DDE70AF07FFB0E28D9D0082302009A43F6
:10B93000D5D0D9E7032002F017FC0028CFD0D3E7F9
:10B94000307F02000610000010B50378002B00D0F5
:10B9500010BD054B3B211888FFF72EFF0028F7D0BC
:10B960000BF04AFDF4E7C0466C2E002010B500280D
:10B9700007D0032804D1013801F04CFF00280DD175
:10B9800010BD002001F046FF00280AD102F07EF928
:10B99000002809D1FFF71AFF0028F1D00BF02CFD89
:10B9A000EEE70BF029FDF1E70BF026FDF2E7C046CC
:10B9B0000120704770B598B002AD04228B49280071
:10B9C0000CF095FA00234822894928000BF0CEFF9D
:10B9D000002800D007E10AAC2200012100200CF071
:10B9E00041F8002800D0FBE020000CF055F80028BA
:10B9F00000D0F2E07F480CF009F8002800D0E9E020
:10BA00007D480CF00DF8002801D00BF0F5FC06F095
:10BA1000A7FF002800D0DAE007F02EF8002800D0B9
:10BA2000D2E0052200212000FFF7F2FB0123812153
:10BA3000227820001A430A4030210A437F210A401D
:10BA400022700722022162700932A270E2781A4342
:10BA50000A43E270227913430B43237106F0E2FF9D
:10BA6000002800D0ADE0654806F0C2FF002801D0F4
:10BA70000BF0C2FC0F2101222B78614E8B43134344
:10BA800010220B40134330002B700CF039FA3100B8
:10BA900082B22800FFF794FE002800D08EE0082232
:10BAA00000212000FFF7B4FBC822C8239200628067
:10BAB00000225B0020002380A280E380FFF77EFE4F
:10BAC000002801D00BF098FC382200212000FFF75D
:10BAD0009FFB022306222370013BA3702382494B64
:10BAE000E27000211A3228006361FFF791FB012305
:10BAF000EB7040232B6174336B6100232A000093A9
:10BB00000021414B200002F059FA002801D00BF02F
:10BB100073FC002101222000FFF77AFB01232100A2
:10BB20003A48237000F0C0FC002801D00BF064FC00
:10BB3000002104222000FFF76BFB00232100344882
:10BB40000A9300F0B7F9002801D00BF055FC002152
:10BB500008222000FFF75CFB2E4B21000A930423F0
:10BB60002D482371637102F0CFFB002801D00BF048
:10BB700043FC1C2200212000FFF74AFBA022920276
:10BB80006260F02200231203A26003220A93E38181
:10BB90002374224B20006361214B2273A36103F0C5
:10BBA0008FFA002801D00BF027FC032002F0DCFA0A
:10BBB000002801D00BF020FC18B070BD0BF01CFC6D
:10BBC0006DE70BF019FC4EE70BF016FC29E70BF0C4
:10BBD00013FC21E70BF010FC12E70BF00DFC09E75A
:10BBE0000BF00AFC00E70BF007FCF4E66C7F0200A8
:10BBF00088300020EDB70100DDB70100C9B80100B1
:10BC0000707F0200682E00206DB90100983C002072
:10BC1000E03C0020D1B701007030002049B901009C
:10BC2000D5B70100F8B5564644465F464D46F0B4D8
:10BC3000FFF798FD394B80469A461B78002B44D17C
:10BC4000374B1A789B46002A39D0364B0024002502
:10BC500099464B464146EE009F197B888979DB0562
:10BC6000DB0E994209D00134E4B20135944226D268
:10BC7000082CEED100231B68FFDE4B4641469B5942
:10BC800049791B039B0E9942EDD1FFF78FFDFFF71A
:10BC90007DFD4B469B5D01225B065B0E03411A4214
:10BCA00034D14146FA78C9789306DB0E99421AD00E
:10BCB0005B4601341A78E4B201359442D8D33CBCD7
:10BCC00090469946A246AB46F8BD5246013B1370DA
:10BCD000FFF76CFD144CB43823689842B0D1FFF7DD
:10BCE00065FD2060ACE703234046397980780B403E
:10BCF00092099B001A439042DAD1FA23DB009C465A
:10BD0000434689081B8861449942D1D1FFF74EFD13
:10BD1000054B5246186000231370C9E7283D0020E8
:10BD200014310020D030002010310020A0DF7047F7
:10BD3000A2DF704763DF70477047C0461E4B186034
:10BD40000368002B1BD04368002B1DD08368002B99
:10BD50001FD0C368002B21D00369002B23D0436977
:10BD6000002B25D08369002B06D0C369002B00D09F
:10BD70007047124BC361FBE7104B8361F5E70F4B34
:10BD800003604368002BE1D10C4B43608368002BB8
:10BD9000DFD10A4B8360C368002BDDD1074BC36042
:10BDA0000369002BDBD1054B03614369002BD9D11B
:10BDB000024B4361D6E7C0461831002039BD01006F
:10BDC00010B5002808D0002906D00B88112B2AD0E6
:10BDD000502B02D0102B22D010BDCB8882889A42E3
:10BDE00026D082899A422CD0828A9A4232D0828B83
:10BDF0009A4238D0828C9A423ED0828D9A4244D068
:10BE0000828E9A424AD0828F9A42E5D1284B0A8A82
:10BE10001B6812310800DB6911009847DCE78A884B
:10BE20003433C252D8E7012244235242C252D3E7EC
:10BE30001F4B0A8A1B68123108001B6811009847C3
:10BE4000CAE71B4B0A8A1B68123108005B681100A5
:10BE50009847C1E7164B0A8A1B68123108009B6895
:10BE600011009847B8E7124B0A8A1B681231080084
:10BE7000DB6811009847AFE70D4B0A8A1B68123147
:10BE800008001B6911009847A6E7094B0A8A1B683E
:10BE9000123108005B69110098479DE7044B0A8A3C
:10BEA0001B68123108009B691100984794E7C0464F
:10BEB00018310020F0B54D465F46444656461023E3
:10BEC000F0B495B007000D0010220F4904A8994660
:10BED0000E240CF00CF8002F0ED0002D0CD00122F7
:10BEE00044235242FA5200220233FA54390004A881
:10BEF000FFF720FF041E09D0200015B03CBC90467F
:10BF00009946A246AB46F0BD787F02003B7802A975
:10BF10008B70F54BBA1C01200B80FFF707FF041E46
:10BF2000EAD10DAD1C2200212800FFF771F908228B
:10BF30002B7801AE1343043A13436A462B703B78C7
:10BF400000219373E94B3000938103226C60EC6015
:10BF50002C616C61AC61FFF75BF90F22337892467C
:10BF60009343012293465A461343524613401022EC
:10BF700090464246134352463370737800219343F0
:10BF80005A461343524613404246134306227370E7
:10BF9000B37808A89343043A1343DBB206329343C1
:10BFA0004A4693435A4613431422B370FFF730F9BD
:10BFB00003AB089301226B461A8514225C859A858F
:10BFC00009963B1D788808AA2900FFF7B1FE041ED8
:10BFD00000D091E71C2200212800FFF719F9082260
:10BFE0002B7800211343043A13436A462B703B78A5
:10BFF00030009373BE4B6C6093810322EC602C6124
:10C000006C61AC61FFF704F9524633780021934329
:10C010005A46134352461340424613435246337026
:10C02000737808A893435A46134352461340424636
:10C03000134306227370B3789343043A1343DBB27D
:10C04000063293434A4693435A4613431422B3702D
:10C05000FFF7DEF803AB089301226B461A85142222
:10C060005C859A853B00099678880C3308AA2900DC
:10C07000FFF75EFE041E00D03EE71C2200212800D0
:10C08000FFF7C6F808222B7800211343043A134324
:10C090006A462B703B7830009373964B6C609381AB
:10C0A0000322EC602C616C61AC61FFF7B1F8524681
:10C0B0003378002193435A46134352461340424675
:10C0C000134352463370737808A893435A46134378
:10C0D000524613404246134306227370B37893438B
:10C0E000043A1343DBB2063293434A4693435A461B
:10C0F00013431422B370FFF78BF803AB08930122AC
:10C100006B461A8514225C859A853B0009967888CF
:10C11000143308AA2900FFF70BFE041E00D0EBE63B
:10C120001C2200212800FFF773F808222B78002139
:10C130001343043A13436A462B703B7830009373E1
:10C140006D4B6C6093810322EC602C616C61AC617F
:10C15000FFF75EF852463378002193435A46134363
:10C16000524613404246134352463370737808A830
:10C1700093435A4613435246134042461343062202
:10C180007370B3789343043A1343DBB2063293439C
:10C190004A4693435A4613431422B370FFF738F8C4
:10C1A00003AB089301226B461A8514225C859A859D
:10C1B0003B00099678881C3308AA2900FFF7B8FDD0
:10C1C000041E00D098E61C2200212800FFF720F86A
:10C1D00008222B7800211343043A13436A462B703C
:10C1E0003B7830009373454B6C6093810322EC6085
:10C1F0002C616C61AC61FFF70BF85246337800217B
:10C2000093435A4613435246134042461343524601
:10C210003370737808A893435A4613435246134029
:10C220004246134306227370B3789343043A134390
:10C23000DBB2063293434A4693435A4613431422D1
:10C24000B370FEF7E5FF03AB089301226B461A8536
:10C2500014225C859A853B0009967888243308AAC5
:10C260002900FFF765FD041E00D045E61C220021D1
:10C270002800FEF7CDFF08222B7800211343043A53
:10C2800013436A462B703B78300093731C4B6C60F1
:10C2900093810322EC602C616C61AC61FEF7B8FF06
:10C2A00052463378002193430E3A134352461340CB
:10C2B0004A46134352463370737808A893430E3AA4
:10C2C0001343524613404A4613437370B3780A3AF5
:10C2D0009343043A1343063293434A4693430F3A37
:10C2E00013431332B3700DE0011600000216000074
:10C2F00003160000041600000516000006160000D4
:10C3000007160000FEF784FF03AB089301226B467B
:10C310001A8514225C859A853B00099678882C330F
:10C3200008AA2900FFF704FD041E00D0E4E51C2242
:10C3300000212800FEF76CFF08222B78904613435B
:10C34000043A13436A462B703B7821009373464BA3
:10C350003000938103226C60EC602C616C61AC61F5
:10C36000FEF756FF0123994653449A464B465246E0
:10C37000134333700F239B464B4613437370B378BC
:10C380000A3A9343043A1343424693435246934333
:10C390004A462100134308A81332B370FEF738FF52
:10C3A00003AB08934A466B461A8514225C859A852E
:10C3B0003B0009967888343308AA2900FFF7B8FCB7
:10C3C000041E00D098E501001C222800FEF720FF83
:10C3D00042462B7821001343043A13436A462B70DC
:10C3E0003B7830009373214B6C6093810322EC60A7
:10C3F0002C616C61AC61FEF70BFF5A46337821006B
:10C4000093434A4613435A461340524613435A46EF
:10C410003370737808A893434A4613435A4613402F
:10C42000524613437370B3780A3A9343043A134362
:10C4300042469343524693434A4613431332B370E2
:10C44000FEF7E6FE03AB08934A466B461A851422B4
:10C450005C859A853B0009963C33788808AA2900B8
:10C46000FFF766FC040047E5081600000916000007
:10C47000A0DF7047A2DF7047A4DF7047A6DF7047D8
:10C4800063DF704700280AD0002908D00B88102BE2
:10C4900006D0112B03D1012244235242C2527047CD
:10C4A00044238A88C252FAE7F0B55F4656464D46A5
:10C4B00044461023F0B495B004000D0010220F493B
:10C4C00004A89A460E270BF012FD002C0ED0002D6A
:10C4D0000CD0012244235242E2522B784732A3541B
:10C4E000210004A8FFF7CCFF071E09D0380015B0C3
:10C4F0003CBC90469946A246AB46F0BD887F020000
:10C50000237802A98B70FA4BA21C01200B80FFF745
:10C51000AFFF032200216846FEF77AFE6B460F222A
:10C520001B7891469343012293465A4613434A4649
:10C53000134010229046424613436A4613705378C4
:10C540004A4693435A4613434A46134042461343CE
:10C550006A465370937806229343043A13436A461B
:10C560000DAD937000211C222800FEF751FE02221F
:10C570002B7801AE1A43462311000122E35C300000
:10C5800013401A01CBB251468B4313432B706B46B9
:10C590006A466B61237800219373D64B6F60938159
:10C5A0000322EF602F61AF61FEF732FE4A46337817
:10C5B000002193435A4613434A46134042461343CD
:10C5C0004A463370737808A893435A4613434A4641
:10C5D00013404246134306227370B3789343043AE0
:10C5E0001343DBB206329343524693435A461343F6
:10C5F0001422B370FEF70CFE03AB089314226B46B3
:10C600001F855F859A856088231D08AA29000996E1
:10C61000FFF730FF071E00D068E7032200216846BD
:10C62000FEF7F6FD6B464A461B78002193435A46B7
:10C6300013434A461340424613436A4613705378E5
:10C640004A4693435A4613434A46134042461343CD
:10C650006A465370937806229343043A13436A461A
:10C66000280093701C22FEF7D3FD02222B783000A5
:10C670001A43462311000122E35C6F6013401A0144
:10C68000CBB251468B4313432B706B466A466B61AA
:10C69000237800219373984BEF60938103222F61DD
:10C6A000AF61FEF7B5FD4A463378002193435A4601
:10C6B00013434A461340424613434A463370737845
:10C6C00008A893435A4613434A461340424613432D
:10C6D00006227370B3789343043A1343DBB20632F5
:10C6E0009343524693435A4613431422B370FEF7C2
:10C6F0008FFD03AB089314226B461F855F859A85D7
:10C70000230060880C3308AA29000996FFF7B2FEBF
:10C71000071E00D0EAE6032200216846FEF778FDF6
:10C720006B464A461B78002193435A4613434A46B8
:10C730001340424613436A46137053784A46934364
:10C740005A4613434A461340424613436A465370BF
:10C75000937806229343043A13436A462800937061
:10C760001C22FEF755FD02222B7830001A43462387
:10C7700011000122E35C6F6013401A01CBB25146F5
:10C780008B4313432B706B466A466B612378002101
:10C7900093735A4BEF60938103222F61AF61FEF7D1
:10C7A00037FD4A463378002193435A4613434A469D
:10C7B0001340424613434A463370737808A89343A4
:10C7C0005A4613434A4613404246134306227370A7
:10C7D000B3789343043A1343DBB206329343524691
:10C7E00093435A4613431422B370FEF711FD03AB73
:10C7F000089314226B461F855F859A852300608805
:10C80000143308AA29000996FFF734FE071E00D04A
:10C810006CE6032200216846FEF7FAFC6B464A46A6
:10C820001B78002193435A4613434A46134042461D
:10C8300013436A46137053784A4693435A46134348
:10C840004A461340424613436A4653709378062281
:10C850009343043A13436A46280093701C22FEF760
:10C86000D7FC02222B7830001A4346231100012204
:10C87000E35C6F6013401A01CBB251468B43134304
:10C880002B706B466A466B612378002193731C4BB7
:10C89000EF60938103222F61AF61FEF7B9FC4A4636
:10C8A0003378002193435A4613434A461340424685
:10C8B00013434A463370737808A893435A46134388
:10C8C0004A4613404246134306227370B37893439B
:10C8D000043A1343DBB206329343524693435A461B
:10C8E00013431422B370FEF793FC03AB0AE0C04677
:10C8F00001150000021500000315000004150000DA
:10C9000005150000089314226B461F855F859A85E4
:10C91000230060881C3308AA29000996FFF7AAFDA6
:10C92000071E00D0E2E5032200216846FEF770FCF6
:10C930006B464A461B78002193435A4613434A46A6
:10C940001340424613436A46137053784A46934352
:10C950005A4613434A461340424613436A465370AD
:10C96000937806229343043A13436A46280093704F
:10C970001C22FEF74DFC02222B7830001A4346237E
:10C9800011000122E35C6F6013401A01CBB25146E3
:10C990008B4313432B706B466A466B6123780021EF
:10C9A0009373CF4BEF60938103222F61AF61FEF74A
:10C9B0002FFC4A463378002193435A4613434A4694
:10C9C0001340424613434A463370737808A8934392
:10C9D0005A4613434A461340424613430622737095
:10C9E000B3789343043A1343DBB20632934352467F
:10C9F00093435A4613431422B370FEF709FC03AB6A
:10CA0000089314226B461F855F859A8523006088F2
:10CA1000243308AA29000996FFF72CFD071E00D031
:10CA200064E5032200216846FEF7F2FB6B464A46A6
:10CA30001B78002193435A4613434A46134042460B
:10CA400013436A46137053784A4693435A46134336
:10CA50004A461340424613436A465370937806226F
:10CA60009343043A13436A46280093701C22FEF74E
:10CA7000CFFB02222B7830001A43462311000122FB
:10CA8000E35C6F6013401A01CBB251468B431343F2
:10CA90002B706B466A466B61237800219373914B30
:10CAA000EF60938103222F61AF61FEF7B1FB4A462D
:10CAB0003378002193435A4613434A461340424673
:10CAC00013434A463370737808A893435A46134376
:10CAD0004A4613404246134306227370B378934389
:10CAE000043A1343DBB206329343524693435A4609
:10CAF00013431422B370FEF78BFB03AB089314228D
:10CB00006B461F855F859A85230060882C3308AAB1
:10CB100029000996FFF7AEFC071E00D0E6E40322C9
:10CB200000216846FEF774FB6B464A461B780021DD
:10CB300093430E3A13434A461340524613436A4600
:10CB4000137053784A4693430E3A13434A461340B0
:10CB5000524613436A465370937806229343043A2D
:10CB600013436A46280093701C22FEF751FB4623AC
:10CB70000122E35C297813401A0102230B4351463A
:10CB80008B4313432B706B466A466B6123780021FD
:10CB90009373554B3000938103226F60EF602F61D8
:10CBA000AF61FEF735FB4A463378002193430E3AD6
:10CBB00013434A461340524613434A463370737830
:10CBC00008A893430E3A13434A4613405246134370
:10CBD0007370B3780A3A9343043A1343063293438B
:10CBE000524693430F3A13431332B370FEF710FBD0
:10CBF00003AB089314226B461F855F859A8523003B
:10CC00006088343308AA29000996FFF733FC071E11
:10CC100000D06BE4032200216846FEF7F9FA0123F5
:10CC20005246994613436A46137052464B46134385
:10CC30006A4653709378062290469343043A13430E
:10CC400093466A460021937028001C22FEF7E0FA02
:10CC500046234A46E35C297813401A015B460B439E
:10CC600051468B4313432B706B466A466B612378A6
:10CC7000390093731D4B3000938103226F60EF6086
:10CC80002F61AF61FEF7C4FA52464B46134333702F
:10CC90004B46134342467370B378390093435A4668
:10CCA000134342449343524693434A4608A81343CE
:10CCB0001332B370FEF7ACFA03AB08936B466A46C7
:10CCC0001F855F8514239385230060883C3308AA61
:10CCD00029000996FFF7CEFB0700FFF707FCC046C7
:10CCE00006150000071500000815000009150000D2
:10CCF00070B586B004000D001600002108226846B9
:10CD0000FEF786FA6B466A461E800023019544258D
:10CD10005380A188605BFFF7AFFB002808D1625BFE
:10CD20000F4B08309A4203D04623E35C002B01D11D
:10CD300006B070BD02AE102200213000FEF768FA86
:10CD4000A388310033800123B3706B465B88B380C6
:10CD50006B46B360019BF360605BFFF78FFBE7E717
:10CD6000FFFF000070B5040086B00D0016000E2015
:10CD7000002C1AD0082200216846FEF749FA6B46BB
:10CD80006A461E800023019544255380A189605B7B
:10CD9000FFF772FB002808D1625B104B08309A4203
:10CDA00003D04623E35C002B01D106B070BD02AE78
:10CDB000102200213000FEF72BFAA38931003380C6
:10CDC0000123B3706B465B88B3806B46B360019BF5
:10CDD000F360605BFFF752FBE7E7C046FFFF000030
:10CDE00070B5040086B00D0016000E20002C1AD07D
:10CDF000082200216846FEF70BFA6B466A461E8041
:10CE00000023019544255380A18A605BFFF734FB22
:10CE1000002808D1625B104B08309A4203D04623A9
:10CE2000E35C002B01D106B070BD02AE10220021E0
:10CE30003000FEF7EDF9A38A310033800123B3708F
:10CE40006B465B88B3806B46B360019BF360605BAD
:10CE5000FFF714FBE7E7C046FFFF000070B50400D2
:10CE600086B00D0016000E20002C1AD008220021DA
:10CE70006846FEF7CDF96B466A461E800023019591
:10CE800044255380A18B605BFFF7F6FA002808D198
:10CE9000625B104B08309A4203D04623E35C002BC0
:10CEA00001D106B070BD02AE102200213000FEF7A5
:10CEB000AFF9A38B310033800123B3706B465B88DD
:10CEC000B3806B46B360019BF360605BFFF7D6FAFB
:10CED000E7E7C046FFFF000070B5040086B00D0014
:10CEE00016000E20002C1AD0082200216846FEF7FA
:10CEF0008FF96B466A461E800023019544255380B6
:10CF0000A18C605BFFF7B8FA002808D1625B104B78
:10CF100008309A4203D04623E35C002B01D106B0CF
:10CF200070BD02AE102200213000FEF771F9A38C13
:10CF3000310033800123B3706B465B88B3806B464E
:10CF4000B360019BF360605BFFF798FAE7E7C046C8
:10CF5000FFFF000070B5040086B00D0016000E2023
:10CF6000002C1AD0082200216846FEF751F96B46C2
:10CF70006A461E800023019544255380A18D605B85
:10CF8000FFF77AFA002808D1625B104B08309A420A
:10CF900003D04623E35C002B01D106B070BD02AE86
:10CFA000102200213000FEF733F9A38D31003380C9
:10CFB0000123B3706B465B88B3806B46B360019B03
:10CFC000F360605BFFF75AFAE7E7C046FFFF000037
:10CFD00070B5040086B00D0016000E20002C1AD08B
:10CFE000082200216846FEF713F96B466A461E8048
:10CFF0000023019544255380A18E605BFFF73CFA26
:10D00000002808D1625B104B08309A4203D04623B7
:10D01000E35C002B01D106B070BD02AE10220021EE
:10D020003000FEF7F5F8A38E310033800123B37092
:10D030006B465B88B3806B46B360019BF360605BBB
:10D04000FFF71CFAE7E7C046FFFF000070B50400D9
:10D0500086B00D0016000E20002C1AD008220021E8
:10D060006846FEF7D5F86B466A461E800023019598
:10D0700044255380A18F605BFFF7FEF9002808D19B
:10D08000625B104B08309A4203D04623E35C002BCE
:10D0900001D106B070BD02AE102200213000FEF7B3
:10D0A000B7F8A38F310033800123B3706B465B88E0
:10D0B000B3806B46B360019BF360605BFFF7DEF902
:10D0C000E7E7C046FFFF000010B5037886B0002BED
:10D0D00001D006B010BD01A80AF04AF90D4C01229A
:10D0E000200001A900F0DCF8200000F015F90B2861
:10D0F000EFD801238340084A134207D10028E8D122
:10D10000064A0021002009F07BFBE2E7200000F046
:10D1100081F8DEE7343D0020220A000081D30100BF
:10D12000004870472C3D002000487047343D0020E7
:10D1300030B51A498BB01A4800F066F819491A48F8
:10D1400000F062F804A80200184B32CB32C232CB96
:10D1500032C2174B174A0093202302920193039384
:10D16000154A1D3B69460AF0A5F8002801D00AF0CF
:10D1700043F91248124B0360124B4360124B836019
:10D18000124BC360124B0361124B4361124B83611C
:10D19000124BC361FEF7D2FD0BB030BD3C3E002008
:10D1A0002C3D00203C3D0020343D0020987F0200B3
:10D1B0001C3100203C310020C9D001005C3100202E
:10D1C00089D40100C9D4010009D5010049D5010065
:10D1D00089D50100C9D5010009D6010049D6010051
:10D1E00070B5084D00242B88002B08D06B68185DA3
:10D1F0000AF0DEF801342B88A4B2A342F6D800204E
:10D2000070BDC0462C3D0020002341600380837028
:10D210007047C046002303808370704710B5837841
:10D220005A0605D4028801320280402213438370DB
:10D23000002904D04068012202300AF058FE10BDD7
:10D2400070B5837804005AB20D000088002A05DB0F
:10D250008022023080B213432080A3705A0605D486
:10D260004022013080B213432080A37063682900FC
:10D270009C46012260440AF03AFE636820889C467E
:10D28000013080B220802E786968320060440AF054
:10D290002EFE23889E19A37826800133A37070BDCB
:10D2A00070B50400636815009C46008860440AF06D
:10D2B0001EFE2288AA18228070BDC0465F2210B5CB
:10D2C000837882B004001A4201D102B010BD01A9D6
:10D2D000093A0A7002324A705AB2002A06DB028802
:10D2E000023202808022524213438370022260681D
:10D2F0000AF0FDFD2188606800F0C6F96B46D91C74
:10D30000636808709C462088012260440AF0EFFDA3
:10D31000238801332380D8E710B501880400012059
:10D32000C82907D86368012905D002291ED0072023
:10D33000032905D810BD1B78652B1CD00430F9E7F4
:10D34000DA78013005329142F4D301309142F1D8BC
:10D350000139180089B200F097F923886268D31860
:10D36000013B1B78834208D00B20E3E75B78852BD9
:10D3700001D00520DEE70720DCE70020DAE7C04621
:10D38000F0B585B0FFF7D0FE04884368053CA4B231
:10D3900005001E1D142C1FD89A78482A03D8384936
:10D3A0009300CB589F4601AF3A70FFF7B9FEFFF7E5
:10D3B00031FFFFF7B5FE390002AFFFF72FFF0396ED
:10D3C0003C70FFF7ADFE3900FFF73AFFFFF7A8FE0C
:10D3D000FFF774FFFFF704FF2800FFF71BFF05B0FE
:10D3E000F0BD220031002748FFF730FEF4E7FEF7DA
:10D3F000DFFA01266B4601AF1E703870FFF790FE12
:10D40000FFF708FF02ACFFF78BFE6946FFF706FF48
:10D4100003972670FFF784FE2100FFF711FFFFF747
:10D420007FFEFFF74BFFFFF7DBFED5E72200310061
:10D430001448FFF75DFCCFE7220031001148FFF7E9
:10D4400091FCC9E7220031000E48FFF7C9FCC3E791
:10D45000220031000B48FFF701FDBDE7220031003B
:10D460000848FFF739FDB7E7220031000548FFF70C
:10D4700071FDB1E7220031000248FFF7A9FDABE7DB
:10D48000B07F0200983C0020492370B50D000600D3
:10D4900084B001AC2370FFF743FEFFF7BBFEFFF73C
:10D4A0003FFE210002ACFFF7B9FE03962570FFF79F
:10D4B00037FE2100FFF7C4FEFFF732FEFFF7FEFE46
:10D4C000FFF78EFE04B070BD4A2370B50D00060054
:10D4D00084B001AC2370FFF723FEFFF79BFEFFF73C
:10D4E0001FFE210002ACFFF799FE03962570FFF79F
:10D4F00017FE2100FFF7A4FEFFF712FEFFF7DEFE86
:10D50000FFF76EFE04B070BD4B2370B50D00060032
:10D5100084B001AC2370FFF703FEFFF77BFEFFF73B
:10D52000FFFD210002ACFFF779FE03962570FFF79F
:10D53000F7FD2100FFF784FEFFF7F2FDFFF7BEFEC7
:10D54000FFF74EFE04B070BD4C2370B50D00060011
:10D5500084B001AC2370FFF7E3FDFFF75BFEFFF73C
:10D56000DFFD210002ACFFF759FE03962570FFF79F
:10D57000D7FD2100FFF764FEFFF7D2FDFFF79EFE07
:10D58000FFF72EFE04B070BD4D2370B50D000600F0
:10D5900084B001AC2370FFF7C3FDFFF73BFEFFF73C
:10D5A000BFFD210002ACFFF739FE03962570FFF79F
:10D5B000B7FD2100FFF744FEFFF7B2FDFFF77EFE47
:10D5C000FFF70EFE04B070BD4E2370B50D000600CF
:10D5D00084B001AC2370FFF7A3FDFFF71BFEFFF73C
:10D5E0009FFD210002ACFFF719FE03962570FFF79F
:10D5F00097FD2100FFF724FEFFF792FDFFF75EFE87
:10D60000FFF7EEFD04B070BD4F2370B50D000600AE
:10D6100084B001AC2370FFF783FDFFF7FBFDFFF73C
:10D620007FFD210002ACFFF7F9FD03962570FFF79F
:10D6300077FD2100FFF704FEFFF772FDFFF73EFEC6
:10D64000FFF7CEFD04B070BD542370B50D00060089
:10D6500084B001AC2370FFF763FDFFF7DBFDFFF73C
:10D660005FFD210002ACFFF7D9FD03962570FFF79F
:10D6700057FD2100FFF7E4FDFFF752FDFFF71EFE07
:10D68000FFF7AEFD04B070BDF0B556465F464D469F
:10D690004446F0B4060083B0002900D1A2E0032282
:10D6A000434213401A1C8B4200D991E092B20A29DE
:10D6B00000D992E00A003378012A00D1A4E0707802
:10D6C0001B18DBB2022A00D18EE0B0781B18DBB247
:10D6D000032A00D18AE0F0781B18DBB2042A00D1BB
:10D6E00086E030791B18DBB2052A00D182E0707920
:10D6F0001B18DBB2062A00D17EE0B0791B18DBB222
:10D70000072A00D17AE0F0791B18DBB2082A00D191
:10D7100076E0307A1B18DBB20A2A00D072E00A27C2
:10D72000707A1B18DBB291424AD0881A80B28246C6
:10D73000043880B2800801308400A4B201944C1EE9
:10D74000A41AA4B2022C2AD90024304DB2189C4647
:10D750008846AB460100130020005A4622409146FD
:10D760005A4620CB01302A406540294C4A44254086
:10D770006A40140082B29142EFD863462004000E42
:10D7800020181B182002000E1B180198240E844636
:10D790001C1967444146E3B2BFB2824510D0F05D28
:10D7A0007A1C1B1892B2DBB2914209D9B05C0237E5
:10D7B0001B18BFB2DBB2B94202D9F05D1B18DBB255
:10D7C000180003B03CBC90469946A246AB46F0BD5B
:10D7D0000A1C92B20A2900D86CE700230027002A0D
:10D7E000A3D068E70023EBE702279CE703279AE72B
:10D7F000042798E7052796E7062794E7072792E787
:10D80000082790E709278EE701278CE77F7F7F7F36
:10D810008080808070B5DB4B04001B680020DB0734
:10D8200000D470BD172CFCD8D74AA300D3589F460C
:10D83000A022D64BD205D1588023DB031C00A120A7
:10D840008C430B40D249C00014505350D14B00229E
:10D850001B68D1489900C91809F01EFCE1E7A02215
:10D86000CA4BD205D1588023DB031C00A1208C4376
:10D870000B40C749C00014505350C64B00221968D2
:10D88000C54809F009FCCCE7C44D280009F064FC48
:10D8900011231C1B00D14CE1002800D049E180235A
:10D8A000BF4E1B043360012C10D0C830642160438C
:10D8B0000AF098F9B74B00221B684343280019006F
:10D8C00009F0EAFBF02332685B041340A022B04960
:10D8D000D2055350A1230021DB00D150A1E7A023A2
:10D8E000F021A122DB054904D20099500021A84A69
:10D8F000002099501222AB4B1A7092E7A023A1226C
:10D90000E021DB05D2004904802499500021A04881
:10D91000A40319501C5099501322A24B00201A70D6
:10D920007FE7A023F0219A4ADB05490499500021A2
:10D93000043A99509B4B00201C7072E7984BA12130
:10D940001A68F0235B049343A022C900D205535008
:10D9500000238F4900205350924A137061E7904B87
:10D96000A1211A68E0235B049343A0220026F0253E
:10D97000D205C90086485350844B1650D3586D04C5
:10D980006B408025AD032B4000D1E9E05550165087
:10D990002821022C00D1F2E0824B1C707D4B00222A
:10D9A0001B687D48594309F077FB3AE7A023F02133
:10D9B000774ADB05490499500021043A99500C221A
:10D9C000784B00201A702CE7A023A122D021DB0580
:10D9D000D20049048024995000216D48E403195075
:10D9E0001C50995014226F4B00201A7019E76C4B91
:10D9F000A1211A68E0235B049343A0220025F024B0
:10DA0000D205C90062485350604B1550D358640486
:10DA100063408024A403234000D199E05450155062
:10DA2000082103221AE05E4BA1211A68E0235B045F
:10DA30009343A0220025F024D205C9005448535036
:10DA4000524B1550D358640463408024A4032340F0
:10DA500000D18DE05450282115500422514B1A70EA
:10DA60009CE7E0224E4B52041B68A1219A43A0235D
:10DA7000C900DB0580245A5000224548A4031A50EF
:10DA80001C505A50474B07321A700020C9E6A02399
:10DA9000A122C021DB05D2004904C02499500021F5
:10DAA0003B48E40319501C50995015223D4B00206F
:10DAB0001A70B6E63A4BA1211A68E0235B0493433F
:10DAC000A0220025F024D205C900314853502F4B25
:10DAD0001550D358640463408024A40323403CD0F1
:10DAE0005450155005222F4B2B481A70294B0022F9
:10DAF0001968490009F0D0FA93E6294BA1211A6868
:10DB0000E0235B049343A0220025F024D205C90042
:10DB10001F4853501D4B1550D35864046340802454
:10DB2000A403234028D05450155006221D4B1A70D0
:10DB3000A3E6F0231A4A5B041168A1240B40A0213C
:10DB4000E400C9050B510023114C0B51136068E62A
:10DB5000145053500221032280E714505350C1E760
:10DB6000155053500421022C00D015E7023913E759
:10DB700014505350042170E714505350D5E7163910
:10DB80000AE7C046A0310020D4800200040500004E
:10DB90000C050000A43100207C310020AC310020B5
:10DBA0009C310020A831002003000720032B00D95E
:10DBB0007047012A13D0012917D0002908D0022963
:10DBC00019D15800C3180D48C3185A700020EFE748
:10DBD0005800C3180948C3189A700020E8E70022CB
:10DBE0000129E8D11A000D32D2B258000349C318F6
:10DBF0005A540020DCE70720DAE7C046CC31002089
:10DC0000E0231D4ADB00D2581C4B13400022C10701
:10DC100001D5C02292021343E0221749D2008B5053
:10DC2000174B9A58154B13400022810701D5C0228B
:10DC300092021343E0221249D2008B50114B9A58A2
:10DC40000E4B13400022410701D5C022920213431C
:10DC5000E0220C49D2008B500B4B9A58074B1340D3
:10DC60000022010701D5C02292021343E022064997
:10DC7000D20000208B50704744000050FFFFFCFF93
:10DC8000480000504C0000505000005010B50320D8
:10DC9000FFF7B6FF0023002802D00300062801D0BA
:10DCA000180010BD0023FBE710B50388102B08D027
:10DCB000112B05D1294A1368013B1360002B07D0B3
:10DCC00010BD264C2368002B11D001332360F7E7E9
:10DCD000012202210020FFF767FF00282BD0072830
:10DCE00029D01F4B1B68002BEAD09847E8E7012298
:10DCF00000210020FFF758FF002808D0072806D091
:10DD0000174B1B68002B00D098472368DDE70722DC
:10DD100002210120FFF748FF002801D00728EFD19A
:10DD2000042202210020FFF73FFF0028EDD0072842
:10DD3000E6D12368C9E7072202210120FFF734FF5B
:10DD4000002801D00728CCD10A2200210020FFF7AB
:10DD50002BFF0028B4D00728C3D1B1E7DC31002065
:10DD6000D831002073DF7047F0B5894C87B00700C9
:10DD7000072200212000FDF74BFA864D6B78002B1F
:10DD800039D1AB78844E002B49D16378002B72D106
:10DD9000A378002B6FD1E378002B6CD12379002B73
:10DDA00069D16379002B66D1A3795A1E9341DBB206
:10DDB000022F58D037D9032F3CD0042F5DD12A79B8
:10DDC0000423002A4DD03370744B1B68002B3AD1CA
:10DDD0000022734B1A70182200216846FDF718FACA
:10DDE00000236A46137013723378042B6DD86D4A82
:10DDF0009B00D3589F46684E3378012B04D0AA78F5
:10DE0000002AC2D0022BC0D1644B1B68002B00D16A
:10DE1000B9E00121644A082011709847B5E73378CA
:10DE2000012BEFD1F0E7012F27D16A78002A1AD011
:10DE3000002B15D1EA780323002AC0D03370574B4A
:10DE40001B68002BC4D02A78002AC1D0574A127808
:10DE5000002ABDD10121524A072011709847BAE724
:10DE600001223270B4E7AA78002AE3D00222002B04
:10DE7000E0D03270ACE701239AE700223270A7E7C6
:10DE80006B462A8A1A82AA8A5A822B78002B00D1E2
:10DE900071E0464B1B78002B00D06CE0444B1A79A4
:10DEA000002A02D11A7B002A65D003936A46022316
:10DEB0004048137200210233C37000F035FE002881
:10DEC00064D105223C4B1A703378002B12D1334BAE
:10DED0001B68002B17D1002019E00222364B019459
:10DEE0001A7001236A4613706B46AA895A826A46E1
:10DEF000AB6813826846FFF735FF002807D1274B30
:10DF00001B68002BE7D02C4A10789847002007B0F8
:10DF1000F0BD0123284A019413706A461370002350
:10DF200053821382E6E70022234B1A70E7E76B4621
:10DF30002A8B1A82AA8B5A822B78002B1FD01B4B5C
:10DF40001B78002B1BD11A4B1A79002A02D11A7B9D
:10DF5000002A14D003936A46022316481372002144
:10DF60000233C37000F0E0FD00280FD10622124BEF
:10DF70001A703378A9E703220F4B1A70BAE704220C
:10DF80000D4B1A70B6E7084A1370FEE633789CE72B
:10DF900050320020583200207833002024320020F4
:10DFA0003C33002034810200793300204B320020C2
:10DFB000702E0020E031002088330020F8B50400E6
:10DFC0000E000E20002C00D1ADE0002A00D1AAE006
:10DFD00055490D3808700020544908705448010014
:10DFE000A1CAA1C1A1CAA1C121CA21C1514A00210E
:10DFF0001360514B069A51481A600122504B52420D
:10E000001A800832FDF704F94E4D0021382228000D
:10E01000FDF7FEF8237822002B70A3781032AB7046
:10E02000E378EB7063786B702B00103303CA03C383
:10E030002B00103A083303CA03C32B0008321833ED
:10E0400003CA03C3636A002B11D03F4B3F4F6B627F
:10E05000616A9F600A881A8088889880002806D0A4
:10E0600000238A68D25CFA5401339842F9D1A36A3A
:10E07000002B14D0364B374FAB62A06A9F6081886B
:10E08000998002881A800023002905D08268D25C1A
:10E09000FA5401338B42F9D12C23E25CEA54236A0F
:10E0A000002B06D02C4B2B62226A51885980128893
:10E0B0001A806368002B00D06B602849284B0A68DF
:10E0C000D81D13600A68506018000E309060180068
:10E0D0001530D06018001C301061180023305061DA
:10E0E00018003133D3611F4B2A30906118008A68C1
:10E0F000103013608A68506018008A682030906081
:10E100008A6819003031D16019004031116119005D
:10E11000503151611900703360319161D361310028
:10E12000280000F001FDF8BD7A330020783300208C
:10E1300058320020243200204C320020503200207F
:10E140003E330020E0310020183200202C32002025
:10E150007C3300209C32002098320020702E00205A
:10E1600040330020BC32002010B50D4B04001B785A
:10E1700082B00820002B01D102B010BD094B01A8CC
:10E180001C7008F0B3F9019B002B04D00122064B50
:10E1900000201A70F0E72000FFF7E6FDECE7C0462C
:10E1A0007A330020783300202832002030B50388ED
:10E1B00083B0112B1AD01B2B0AD0102B01D003B027
:10E1C00030BD837D012BFAD18288224B1A80F6E77D
:10E1D000037A002BF3D1204B08201B78002B1FD192
:10E1E0001E4B1B68002BEAD09847E8E700211C4A29
:10E1F00083881170174A12889A42E0D1164B082082
:10E200001B78002BECD00122164B01A81A7008F0E5
:10E210006DF9019B002B17D00122134B1A70CEE72A
:10E22000104D05212878013009F04CFE01A8CCB230
:10E230002C7008F05BF9019B002BEDD12000FFF75B
:10E2400093FD0028BBD0CBE70120FFF78DFD002810
:10E25000B5D0C5E73E3300207A3300204C32002091
:10E260004B320020783300202832002030B50238AD
:10E2700083B0012803D8124C2378002B01D103B0BE
:10E2800030BD002323700F4B08201B78002B05D1D5
:10E290000D4B1B68002BF2D09847F0E70B4B01A801
:10E2A0001D7808F023F9019B002B02D00123237075
:10E2B000E5E72800FFF758FD0028E0D0E8E7C04672
:10E2C000283200207A3300204C320020783300209E
:10E2D00076DF7047A0DF7047A2DF7047A6DF704788
:10E2E000A8DF704763DF704710B5002908D1054CDF
:10E2F000133123689888FFF7EBFF012223681A7512
:10E3000010BDC0463C3F0020F0B55F464D46444638
:10E310005646F0B495B005000C001022584904A8E8
:10E3200009F0E5FD0E27002D11D0002C0FD0554B24
:10E3300029001D6001235B42AB80236804A82B6188
:10E3400000232B75AB73FFF7CDFF071E07D03800F6
:10E3500015B03CBC90469946A246AB46F0BD2B7822
:10E3600002A98B700123AA1C012098460B80FFF79D
:10E37000B1FF071EEBD1032200216846FCF748FFDE
:10E380006B460F221B7892469343012293465A46CE
:10E3900013435246102613406A4633431370537892
:10E3A000524693435A461343524613406A463343F8
:10E3B00053709378062291469343043A13436A4676
:10E3C0000DAC937000211C222000FCF721FF0822D5
:10E3D000237800213343134323706B466A466361FD
:10E3E0002B7801A893736B4642469A81032267609B
:10E3F000E7602761A761FCF70BFF6B4652461B796C
:10E40000002193435A461343524613406A4633430E
:10E4100013715379524693435A461343524613405D
:10E420006A463343537193794A469343043A1343FC
:10E43000F53213401E435B461E436B469E7108AE89
:10E44000E33A3000FCF7E4FE03AB089301AB7360E2
:10E45000172337817781B3816888AB1D3200210093
:10E46000FFF73AFF071E00D071E70120FCF7EEFE30
:10E47000002801D007006AE706F02EFC67E7C046D7
:10E48000488102003C3F0020F0B54F464646C0B4EC
:10E4900005008BB00C00002810D000290ED00B888E
:10E4A000112B2CD00FD9502B12D0512B06D18A888A
:10E4B00083889A4202D18B79022B33D00BB00CBCEB
:10E4C00090469946F0BD102BF8D18B888380F5E7F4
:10E4D000CA8843899A42F1D10E8A022EEED10800F1
:10E4E000123000F087FF2B69A873002BE6D0421E84
:10E4F000904106A9361A0E7028009847DEE78288F8
:10E500008B889A42DAD101235B428380037D002B02
:10E51000D4D0BFF34F8F334A334BDA60BFF34F8F02
:10E52000C046FDE70989C2889142C7D1A37B043B5D
:10E53000022BC3D902AE102200213000FCF768FE86
:10E5400002233370AB7B002B49D00123B2791343F4
:10E55000B3710023B380A8883100FFF7C1FE1128F2
:10E56000F9D0B788002FA9D1237D06AE9946013B8B
:10E570005A42534102220021D31A30000E329846EB
:10E58000FCF746FE6B469A1C03232021138001AB47
:10E5900019704946597041469970E988A8883180B8
:10E5A0000121B1703100F360B780B260FFF796FED1
:10E5B0004346012B00D081E7237D012B00D07DE76E
:10E5C0002B69002B04D000223100327028009847BC
:10E5D0000122064B06489A6506F0D0FB6EE7FE2343
:10E5E000FF33B7E70400FA0500ED00E0403F0020EC
:10E5F000E9E2010071DF704772DF704779DF704731
:10E600007DDF704765DF7047F0B55F4656464D4683
:10E610004446F0B485B09A460EAB80CB06001B880A
:10E6200000919B463B8801930388002B63D0002315
:10E63000994602ABDD1C3B0000241700984603E01E
:10E6400033880134A3422CDD7368A1009C46042268
:10E65000614403A809F04BFC0022290003A8FFF73E
:10E66000D1FF002829D12B78BB42E9D14B46002BA2
:10E670002AD043461A88D3195B453EDC5244290010
:10E6800003A8FFF7BFFF002817D143462A781B884D
:10E690000134D31842461380012399463388A3429C
:10E6A000D2DC4B464746002B25D03B88019A013BE4
:10E6B0009B1A9BB20C20FF2B1AD905B03CBC90468C
:10E6C0009946A246AB46F0BD43461B88DA19023292
:10E6D0005A4512DC4246013369469BB213805246CA
:10E6E0000978D15443461A88013292B21A80C5E79C
:10E6F0001100524653540020DFE70C20DDE7C046EE
:10E70000F0B5444656464D465F46F0B413881400B3
:10E710009846002313802D33C25C87B005000E009D
:10E720000023002A00D0EFE0AA78002A00D018E1E8
:10E73000E978002900D0DCE06A68002A15D0D91CED
:10E74000414500D9D8E002211278F15423880831DC
:10E7500001339BB22380F154238852B201339BB220
:10E760002380F2542388013323802B89002B00D08F
:10E770002AE12B8A002B00D041E12B8B002B00D00B
:10E7800058E12B6A002B48D022880C20911D41456E
:10E7900000D9B2E0198805388B46052900D8ACE0CD
:10E7A000B54F5F44BFB2B946B44FBC46B94500D877
:10E7B000A3E05F88BA46052F00D89EE0AE4F6946B9
:10E7C000B946D1444F46CF81CF89674500D894E000
:10E7D000AB4FBB4504D0BA4502D0D34500D98CE03D
:10E7E0000521B15422880D31013292B22280B154F8
:10E7F0002288013292B222801988B2181170090A57
:10E8000051702288023292B222805988B31819704E
:10E81000090A59702388023323806F6A002F2CD095
:10E82000BA882188131D5B180C20434565D8931CBA
:10E83000FE2B62D803327254FF22238801339BB22D
:10E840002380F254238801339BB223803A88F31843
:10E850001A70120A5A70238802339BB22380BA8836
:10E86000002A0AD0B9680538002946D0F01809F006
:10E870003EFB2288BB88D31823802C23EB5C002B23
:10E8800000D0FFE02B780020002B36D02A8807200C
:10E89000012A32D02288901C40452DD8012B04D16A
:10E8A0006B7802339B18984526D34746023FBA1A25
:10E8B00097B202AB301804A91F81FFF7A1FE002810
:10E8C0001BD12B78022B00D125E1012B00D1CCE00C
:10E8D0003B000821FE2B0FD822885D1CB5542288EE
:10E8E000013292B22280B154228801329B182380D7
:10E8F00003E0DA1C424555D90C2007B03CBC9046D9
:10E900009946A246AB46F0BD43460C20082BF4D9ED
:10E9100004A8FFF76FFE0028EFD108222388092101
:10E92000F2542388133201339BB22380F25402AB9A
:10E930009C462088153A013080B22080614430180E
:10E9400009F0D5FA238802AA0633127A9BB22380F3
:10E95000002A00D00122F254238801339BB2238085
:10E96000E2E604330C204345C7D804A8FFF746FE6F
:10E970000028C2D103222388F2542388163201339F
:10E980009BB22380F254238802AA01339BB21289DE
:10E990002380F3181A70120A5A70238802339BB22C
:10E9A0002380C5E60222F2542388013A01339BB248
:10E9B0002380F254238801339BB22380F1542388AF
:10E9C00001339BB22380B7E62F00434608370193FB
:10E9D00000943300022202213800FFF715FE0028C0
:10E9E00000D08AE7434600940193102233000621A9
:10E9F0003800FFF709FE002800D07EE7B9E62F00B7
:10EA0000434610370193009433000222032138005B
:10EA1000FFF7FAFD002800D06FE74346009401930A
:10EA20001022330007213800FFF7EEFD002800D048
:10EA300063E7A2E62F0043461837019300943300A2
:10EA4000022214213800FFF7DFFD002800D054E730
:10EA50004346009401931022330015213800FFF73C
:10EA6000D3FD002800D048E78BE66B789F4200D3A7
:10EA70002FE73B002DE7C0467FF3FFFF7DF300004B
:10EA8000FFFF0000AF6A002F43D0BB880233FE2B8C
:10EA900000D931E70022914616329246163293464B
:10EAA0002088524601333354238801339BB223809C
:10EAB000F254238801339BB223803A88F3181A70EA
:10EAC000120A5A702088023080B22080BA88002A48
:10EAD0000AD0B96800291CD0301809F008FA20883B
:10EAE000BB88C01880B220804B460133DBB2994608
:10EAF0005B46EB5C4B4500D8C4E64B465F00AB6A17
:10EB00004F449C46BF006744BB880233FE2BC8D9E4
:10EB1000F2E60720F1E602AB1B8909219F4200D3F0
:10EB2000D8E63B00D5E6C046F0B54E4657464546CA
:10EB30001F23E0B496B002AA04000E00D38100287F
:10EB40002ED0C078430724D5002302AA93812D3309
:10EB5000E35C002B00D074E1A3780EAF002B00D053
:10EB6000ACE100230021032206AD02276F54591C9B
:10EB700002339BB289B2013F6F54E85493B202AAA8
:10EB800093816268002A39D0D91C1F2929D90C2009
:10EB900000E0072016B01CBC90469946A246F0BD86
:10EBA000002502AB9881002E16D0F378002BF0D10F
:10EBB00002AA94460E2363441A000EA93000FFF700
:10EBC0009FFD0028E6D102AB9B7B0EAA02A9097B20
:10EBD0002800FFF711FDDDE702ABDE8100220023F4
:10EBE000F4E70020105602220A27EA545A1C023386
:10EBF0009BB292B2AF54E85402AB99812389002BA7
:10EC000000D0C4E0238A002B00D0DEE0238B002B51
:10EC100000D0F8E0226A002A3ED002AB9B890C208B
:10EC2000991D1F29B6D8108882460528B1D9B14F41
:10EC30005744BFB2B846B04FBC46B845A9D957886B
:10EC4000B946052FA5D9AB4F6846B846C8444746D4
:10EC5000C781C78967459CD9A84FBA4504D0B94533
:10EC600002D0CA4500D994E705201227E854581C61
:10EC700080B22F54981C80B202AFB8811788281830
:10EC800007703F0A4770043352889BB2EB181A7022
:10EC9000120A5A7002AB9981676A002F34D0BB8880
:10ECA000991C02AB9B899A1C50188046914642469B
:10ECB0000C201F2A00D96DE7FE2900D96AE701312F
:10ECC000E954591C89B2F33068544A466946CA81EE
:10ECD000CA8902A98A813988AA180433117098B2A6
:10ECE000090A02AB51709881BA88002A0CD0B96821
:10ECF000002900D14DE7281809F0F9F802AB9A89EC
:10ED0000BB88D31802AA93812C23E15C002900D090
:10ED1000F6E02378002B00D145E722880720012A5E
:10ED200000D137E702AA9289901C1F2800D92EE74C
:10ED3000012B05D163789B1802331F2B00D926E7DE
:10ED40001D230EAF9A1A93B22818390098463B80BB
:10ED5000FFF756FC002800D01CE72378022B00D1D7
:10ED600019E1012B00D11CE1434608203B804346BA
:10ED7000FE2B00D90BE702AA9289591CA954511CF9
:10ED800002329B1889B202AA685493810BE71F23B1
:10ED9000270098460837019305AB009302222B0009
:10EDA00002213800FFF730FC002800D0F2E643468D
:10EDB000019305AB009310222B0006213800FFF7CA
:10EDC00023FC002800D0E5E61CE71F232700984617
:10EDD0001037019305AB009302222B00032138006A
:10EDE000FFF712FC002800D0D4E64346019305ABA0
:10EDF000009310222B0007213800FFF705FC0028A4
:10EE000000D0C7E602E71F23270098461837019372
:10EE100005AB009302222B0014213800FFF7F4FB0E
:10EE2000002800D0B6E64346019305AB00931022BC
:10EE30002B0015213800FFF7E7FB002800D0A9E6DA
:10EE4000E8E60EAF3800FFF7D5FB002800D0A1E6BA
:10EE5000082202AB9B8906ADEA545A1C023398B2D1
:10EE60001B2102AB9C4692B2A9541631988106220E
:10EE70006144281809F03BF802AB9B8902A99A1D4E
:10EE800092B28A813978002900D001210733A95430
:10EE90009BB202AA9381A278002A0AD1E0780028C6
:10EEA00000D16EE6DA1C19001F2A00D85DE60C209E
:10EEB00070E604330C201F2B00D96BE63800FFF7F7
:10EEC0009DFB002800D065E60322192102AB9B8937
:10EED00006ADEA545A1C92B2A9549A1C398892B2CF
:10EEE000AA1811700433090A51709BB202AA9381C7
:10EEF000D4E7C0467FF3FFFF7DF30000FFFF000073
:10EF0000A76A002F00D144E6BB880233FE2B00D94C
:10EF10003DE602AA908900229046163291461632AA
:10EF200092464A4601332B54431C9BB2EA54831C3D
:10EF30009BB202AA93813A88EB181A700430120A25
:10EF40005A7080B202AB9881BA88002A0FD0B96893
:10EF5000002900D11DE6281808F0C9FF02AB9889E6
:10EF6000BB88C01880B202AB98815346E15C43462F
:10EF70000133DBB298468B4200D3CAE643465F00BA
:10EF8000A36A47449C46BF006744BB880233FE2BFC
:10EF9000C7D90C20FEE53B880930984500D3E7E649
:10EFA000E2E66378984500D2DEE63B800820DFE6A3
:10EFB00075DF704776DF70477ADF70477BDF704719
:10EFC00010B5184B82B01888174B984214D0174AC6
:10EFD000174C13780133DBB21370217B99420DD2A9
:10EFE00000231370237C002B12D16369002B03D004
:10EFF000002201A80270984702B010BD0D49FFF72A
:10F00000D7FF0028F8D0A369002BF5D09847F3E785
:10F010003B21FFF7CFFF0028E7D0A369002BE4D006
:10F020009847E2E7F8330020FFFF0000B8330020E4
:10F03000BC330020FC33002030B51B4B1B4A5B88DF
:10F04000118883B099420FD852889A420CD3184B3A
:10F050005B69002B03D0012201A802709847154C70
:10F060000023237003B030BD124C2378002B08D04E
:10F070000F4B5B69002BF3D0002201A80270984768
:10F08000EEE70D4B0A4D1B78002B0BD0A968002230
:10F090000A4808F001F80028E2D0AB69002BDFD065
:10F0A0009847DDE76968F2E7B0330020FC330020C1
:10F0B000BC330020AC330020B8330020D83300200C
:10F0C000164902000B0070B532CA32C332CA32C3CD
:10F0D00012681A600022124B01681A70002916D0BB
:10F0E000104C0832200008F002FF2000FFF764FFF8
:10F0F00000280BD101220C4B52421A8000220B4BEC
:10F1000000211A700A480B4A07F0ACFF70BD054891
:10F11000FFF754FF0028EDD0F8E7C046BC330020CD
:10F12000AC330020FC330020F8330020B83300203B
:10F1300058810200C1EF010010B50388112B33D0B4
:10F1400021D9122B18D0502B1CD1204CC288E38916
:10F150009A4217D1038A022B14D1123000F04AF9D7
:10F1600000280DD11A4807F0F7FF00280AD0A3693C
:10F17000002B07D0984705E0164B083006C806C399
:10F18000FFF75AFF10BD102BFCD18288124B1830AC
:10F190001A80104B06C806C30022104B1A700B4B86
:10F1A000DB89002BEED1EBE701220B4B52421A8098
:10F1B00000220A4B06481A7007F0CEFF0028E1D063
:10F1C000024B9B69002BDDD09847DBE7BC33002066
:10F1D000D8330020B0330020F8330020B8330020AB
:10F1E000F0B55F4656464D464446F0B4038889B0B4
:10F1F0000700112B00D16CE01A2B50D0102B06D039
:10F2000009B03CBC90469946A246AB46F0BD374E8D
:10F2100003A8737D327D03AC9A43331D19009846D1
:10F2200008F0F0FA039B00259946002B10D0142318
:10F230009B4600239A46B3445246A38859460092FF
:10F2400040461D22013508F093F90234A945F3D157
:10F25000307DBC88C043C0B208F022F9244B9842EC
:10F2600040D031004000351D301884802200280035
:10F270001531012308F040F9310022002800143133
:10F28000012308F039F9BB7D3100023B5A4253415A
:10F290001631DBB2BA88280008F02EF9B0E71F2338
:10F2A000027A124E93429B4131005B428288DBB26C
:10F2B000301D173108F020F92F233A7A310093429C
:10F2C0009B415B42DBB2BA881831301D08F014F95B
:10F2D00096E782880548002301000430153108F0C4
:10F2E0000BF98DE7042008F087F889E70434002043
:10F2F000FFFF000070B50A4C0200251D0600217DAD
:10F30000280008F04DFA03000020002B07D0A17D53
:10F310003200280008F044FA431E9841013070BDC5
:10F320000434002010B5034B0200D97D181D08F0ED
:10F3300037FA10BD0434002010B5034B0200197ECB
:10F34000181D08F02DFA10BD0434002010B504007B
:10F3500003490A7D043108F055FA200010BDC0466B
:10F360000434002030B5094D00232968012402E04F
:10F370000133182B07D022009A40D8B21142F7D19E
:10F380000A432A6030BD1820FCE7C0460434002040
:10F3900001238B4070B5064C0200256800201D42F9
:10F3A00004D06118497E201D08F0FAF970BDC046EE
:10F3B0000434002070B501248C40064D2B68234294
:10F3C00007D069180435130019310200280008F02D
:10F3D00093F870BD043400200123834010B5044924
:10F3E00002000C6800201C4201D08A18507E10BD1B
:10F3F00004340020012300781840704770B584B0B1
:10F40000050000F02DFB04000C282FD016D8002892
:10F4100029D0042819D1082301ACA5802800237025
:10F4200000F064FE6080200003F0FEF90022114B22
:10F4300028001978FFF7BEFF04B070BD0122112823
:10F44000F5D00D4B00229842F1D0092301AE2800DF
:10F45000337000F04BFE70803000B580B46003F074
:10F46000E3F90022E3E701AC0123D6E701AC07236F
:10F47000D3E7C0463A3400200230000070B584B0B3
:10F48000040000F041FB05000B282BD01BD9012202
:10F49000112803D0154B0022984206D1144B2000AE
:10F4A0001978FFF787FF04B070BD092301AE200073
:10F4B000337000F01BFE70803000B480B56003F044
:10F4C000B3F90022EAE70028EFD1022301AD2000C2
:10F4D0002B7000F00BFEAC806880280003F0A4F9CC
:10F4E0000022DBE701AD0323F1E7C0460230000054
:10F4F0003B340020F0B557464E464546E0B488B050
:10F5000003A8FFF723FF039F002F2FD03A4B03AC34
:10F5100098463A4B0025994603E001350234BD4236
:10F5200024D04346A68819783000FFF731FF002821
:10F53000F3D04B4630001978FFF72AFF0028ECD1B2
:10F54000300000F05FFB08281AD015D92C4B9842E8
:10F550001FD02C4B98423BD12B4B9E4219D03000F0
:10F56000FFF78CFF002301229A4615E008B01CBC6F
:10F5700090469946A246F0BD002819D0062829D108
:10F58000300000F0B3FD00F055FB002300229A4646
:10F5900002E0002301229A46434630001978FFF723
:10F5A00009FF4B46524619783000FFF703FFB4E7D6
:10F5B0006A4605233000137000F098FD6B465880B2
:10F5C00068469E8003F030F9012301229A46E3E762
:10F5D0001128DED06A46092302903000137096800D
:10F5E00000F084FD6B465880684603F01DF9002347
:10F5F00001229A46D0E7C046383400203934002032
:10F600000230000001340000FFFF000010B584B09C
:10F6100004006B464088D8802378012B16D0002B3D
:10F6200006D0022B02D12379002B17D104B010BDD4
:10F630006A4601A8137103F0F7F8608800F076FEBF
:10F640000F4B9842F2D0FFF719FFEFE76A461371AC
:10F65000A38801A8138103F0E7F8E7E700F066FE4E
:10F66000074B9842E2D0074C01222178FFF7A2FE17
:10F670002078FFF7B1FE0028D8D0FFF73BFFD5E791
:10F68000FFFF000038340020F0B5037885B0040097
:10F69000012B1BD14588224B28009D4212D000F03F
:10F6A00033FA06000B2837D019D90122112803D0CC
:10F6B0001C4B0022984221D11B4B28001978FFF7E0
:10F6C00079FE608800F08EFA002801D105B0F0BD07
:10F6D000164B608819780122FFF76CFEF6E70028C8
:10F6E0000CD1022301AE2800337000F0FFFCB5807E
:10F6F0007080300003F098F80022DDE7092301AFA5
:10F7000028003B7000F0F2FC78803800BD80BE60BD
:10F7100003F08AF80022CFE701AE0323E3E7C046F7
:10F72000FFFF0000023000003B340020383400208E
:10F7300070B5047884B0072C01D004B070BD458842
:10F74000280000F08DF906000C282BD015D80028D1
:10F7500034D0042818D1082301ACA58028002370D8
:10F7600000F0C4FC6080200003F05EF80022154B1E
:10F7700028001978FFF71EFEDFE701221128F6D0D6
:10F78000114B00229842F2D0092301AC28002370CB
:10F7900000F0ACFC60802000A580A66003F044F877
:10F7A0000022E4E701AE28003470B58000F09EFC32
:10F7B0007080300003F038F80022D8E701AC012354
:10F7C000CBE7C0463A3400200230000070B5FFF7A6
:10F7D000C9FD0E4C2070FFF7C5FD0D4D2870FFF7D9
:10F7E000C1FD0C4E3070FFF7BDFD0B4A03001070D9
:10F7F00022780320182A08D02A78182A05D03278CF
:10F80000182A02D0182B00D0002070BD3A340020F6
:10F810003B3400203834002039340020F0B55746FE
:10F820004E464546E0B4038888B00400522B00D110
:10F830007DE0542B63D0502B1CD0424B9A46424B58
:10F8400018789846FFF7C8FD00283CD13F4F38781C
:10F85000FFF7C2FD00281DD153461878FFF7BCFD05
:10F86000002801D0FFF746FE08B01CBC9046994620
:10F87000A246F0BD037B012BDFD1837A012BDCD1C3
:10F88000334B02899A42D8D18088FFF7B7FD2D4BC0
:10F890009A46D4E703A8FFF759FD039B03AC9946AA
:10F8A0000025002B04D1D7E701350234A945D3D078
:10F8B000A68839783000FFF76BFD0028F4D03000BF
:10F8C000FFF79CFDF0E703A8FFF740FD039F03ACA3
:10F8D0000025002FBAD01F4B99464346A6881978B9
:10F8E0003000FFF755FD002804D04E4502D030000F
:10F8F000FFF7C4FD01350234BD42EED1A6E76A46EA
:10F9000006231370808800F0F1FB6B466A4658802E
:10F91000A388938000F08EF90A4BA0881978002202
:10F920009A46FFF747FD684602F07EFF87E780882A
:10F93000084B984200D180E7FFF7A0FD014B9A46A3
:10F940007DE7C046383400203B3400203A340020A4
:10F9500002290000FFFF0000F0B5474680B486B0E2
:10F9600000F01CF901A8FFF7F1FC019E002E28D041
:10F97000154B00249846154F03E00134A4B2A6426B
:10F9800013D901AA9446630063449D88280000F0BF
:10F99000ADFBB842F1D14346013419780122280069
:10F9A000A4B2FFF707FDA642EBD843461878FFF74D
:10F9B00013FD002801D0FFF79DFD06B004BC904662
:10F9C000F0BD014B9846F0E738340020FFFF0000FF
:10F9D000A7DF7047A9DF7047AADF7047F0B503784B
:10F9E00085B00400012B19D0164C174D2088A84271
:10F9F00012D002AE3200154B82CB82C205E0112834
:10FA00000AD0180002F084FC20800022310002F0AD
:10FA100091FC2388AB42F2D105B0F0BD0579012DF0
:10FA2000E2D1408802AA012101F082FE0028DBD148
:10FA30006A46022313706388684653801571FFF786
:10FA4000E5FDD1E73C340020FFFF00005C810200AF
:10FA50000122024B524200201A8070473C340020A1
:10FA6000F0B5474680B482B0070000F03FFB244B5E
:10FA70000500984241D003230126984632006B4688
:10FA80000821280001F05AFE002829D10199434697
:10FA90000A00380008C206310323FFF79DFF041E49
:10FAA00025D00C280ED005281FD00821280002F0F0
:10FAB0005DF9002804D1200002B004BC9046F0BDDE
:10FAC0000324F8E701360821B6B2280002F04EF907
:10FAD0006B4632000821280001F030FE0028D5D006
:10FAE0000C240728E7D00400E5E70024DDE708211F
:10FAF000280002F001FC0400DDE70248DCE7C04614
:10FB0000FFFF000002300000F0B546464F46C0B48B
:10FB100083B0060000F0EAFA1F4B984205D06A460F
:10FB2000082101F005FE00282CD003240027002521
:10FB3000012398460133994623003A0029003000FA
:10FB4000FFF748FF04280CD008280CD00B280CD055
:10FB50004346002B00D10B2003B00CBC90469946C5
:10FB6000F0BD1120F4E70020F2E74B46234207D115
:10FB7000002D0CD003240027002500239846DBE746
:10FB80000124FAE7019B9D1D9F881C68D0E7002F88
:10FB9000E2D003240027F0E7FFFF0000F0B50E4E8F
:10FBA00083B0300002F0B4FB6A460C4C0C4B208052
:10FBB0006D4682CB82C205E011280AD0180002F0FF
:10FBC000A7FB20800022290002F0B4FB2388B34267
:10FBD000F2D103B0F0BDC046FFFF00003C3400206E
:10FBE0005C81020000B583B000F080FA6A46012112
:10FBF00001F09EFD0023002801D1019B1B78180015
:10FC000003B000BDF8B50600074F084D3C88210041
:10FC1000074A3000FFF7DCFE0134A4B2A84200D04E
:10FC2000F8BD3C80F3E7C0463E34002003300000BE
:10FC3000FFFF000030B583B06A46054B69460833C4
:10FC400030CB30C2002202F075FB03B030BDC0469D
:10FC50005C81020071DF70474DDF7047F0B5574699
:10FC60004E464546E0B403889EB0102B05D01EB02A
:10FC70001CBC90469946A246F0BD07AC2300043058
:10FC800026C826C326C826C326C826C306C806C358
:10FC90002379032B00D194E000F0C0FD2379012BE0
:10FCA00000D8D8E0022B00D08BE06B4605AD9F1D3D
:10FCB0002A003900072000F0BBFD002800D180E0B9
:10FCC0002379022BF4D16B680322994621236B44DC
:10FCD000190002A808F00BF9032209A904A808F0EA
:10FCE00006F94B461B7C12AE33704B46DB7B0D2274
:10FCF00073704B469B7B0021B3704B465B7B16A811
:10FD0000F3704B461B7B33714B46DB7A73714B466A
:10FD10009B7AB3714B465B7AF3714B461B7A337215
:10FD20004B46DB7973724B469B79B3724B465B79DA
:10FD3000F3724B461B7933734B46DB7873734B4638
:10FD40009B78B3734B465B78F373FBF761FA6B46B2
:10FD50001B7C3000F3776B465B7CB3776B469B7CF8
:10FD60007377FFF779FF2F23F35C03A90B702E2322
:10FD7000F35C03224B702D23F35C02A88B7008F018
:10FD8000A7F8002894D13B8827889846634B9F4268
:10FD90001DD1624B984500D169E72688604B300041
:10FDA0001978FFF7F5FA002831D1238812AD6B805E
:10FDB000012328002B7002F085FD2800FFF764FC6A
:10FDC00055E7564B278898469F4200D14FE7544B42
:10FDD0000122994619783800FFF7ECFA4B463800B3
:10FDE0001978FFF7D5FA4F4D002850D1AA460026C2
:10FDF0004B46197853465888FFF7CAFA002861D055
:10FE00000C239C460136E244082EF1D1C1E7454D52
:10FE10006B88B34268D0EB89B34267D06B8BB34237
:10FE200066D0EB8CB34214D06B8EB34264D0EB8FB0
:10FE3000B34265D04A23EB5AB34263D05623EB5A00
:10FE4000B342B2D107235A00D31842469B00EA526C
:10FE5000ABE70323F7E76B4605AD9F1D2A0039008A
:10FE6000072000F0E5FC0028ABD069680B001133D7
:10FE7000F4D022794B7C9A42F0D121236B44123189
:10FE80000622180008F024F80028E7D17BE76B88E9
:10FE9000BB422FD0EB89BB4230D06B8BBB4233D0FF
:10FEA000EB8CBB4232D06B8EBB4231D0EB8FBB426E
:10FEB00030D04A23EB5ABB422ED05623EB5A0726AA
:10FEC000BB4293D10122F3B25E00F618B600AB1923
:10FED0005242AA535F80089808A958601A1D8B885F
:10FEE00093808B79937154E70023ACE70123AAE751
:10FEF0000223A8E70026E5E70423A4E70126E1E7BB
:10FF00000523A0E706239EE70226DBE70326D9E7C1
:10FF10000426D7E70526D5E70626D3E7FFFF00002E
:10FF2000A734002040340020F0B5474680B4037861
:10FF300088B00400002B02D10379072B03D008B04E
:10FF400004BC9046F0BD408802AA072101F0F0FBF6
:10FF50000028F4D100F062FC6B469D1D04AA290024
:10FF6000072000F065FC0028E9D062882B889A42BF
:10FF7000F4D0039E7378701C002B2CD14378002B97
:10FF800029D18378002B26D1C378002B23D1037984
:10FF9000002B20D14379002B1DD18379002B1AD15E
:10FFA000C379002B17D1037A002B14D1437A002B8D
:10FFB00011D1837A002B0ED1C37A002B0BD1037B96
:10FFC000002B08D1437B002B05D1837B002B02D172
:10FFD000C37B002BC2D0059F1022791C07F078FF4D
:10FFE0003B008046113336D0717C7A7C00239142ED
:10FFF00033D04246002A2AD1284A63881188994280
:020000022000DC
:1000000047D09189994242D0118B99423DD0918C31
:10001000994238D0118E994233D0918F99422ED087
:100020004821515A994223D05421515A994232D0F1
:100030001B4A06AC62800022A3802B88200022701D
:10004000E38002F03FFC2000FFF71EFB77E7002B68
:1000500000D183E7D0E70023CBE73900300012312D
:100060001230062207F034FF43424341DBB2C0E7BF
:10007000062148004118890052185288D9E7052105
:10008000F7E70421F5E70321F3E70221F1E7012176
:10009000EFE70021EDE70721EBE7C0464034002001
:1000A000FFFF0000182301224A2110B50C4C5242D8
:1000B00023700C4B5A520C315A80DA815A83DA84FD
:1000C0005A86DA875A52FFF74DF92070182801D165
:1000D000032010BD0448FFF7BDFD0028F8D1F8E764
:1000E000A734002040340020A034002010B51C4B61
:1000F00004001978FFF74CF9002801D1194810BD08
:10010000194A5388A3421CD0D389A3421BD0538BD6
:10011000A3421AD0D38CA34219D0538EA34218D035
:10012000D38FA34217D04A23D35AA34215D05623C4
:10013000D35AA342E2D107235900CB189B00D05ACF
:10014000DDE70023F8E70123F6E70223F4E70323C2
:10015000F2E70423F0E70523EEE70623ECE7C046C9
:10016000A7340020FFFF00004034002070B5204B72
:100170000D0019780400FFF70BF90523002801D1C1
:10018000180070BD1B494A88A24222D0CA89A242E7
:1001900021D04A8BA24220D0CA8CA2421FD04A8EC4
:1001A000A2421ED0CA8FA2421DD04A228A5AA2421F
:1001B0001BD056228A5AA242E2D102335A00D318E7
:1001C0009B00C91804310722280007F090FE002385
:1001D000D6E70023F2E70123F0E70223EEE703234B
:1001E000ECE70423EAE70523E8E70623E6E7C04651
:1001F000A73400204034002010B50388002B17D10D
:100200008278002A14D1C278002A11D10279002AFA
:100210000ED14279002A0BD18279002A08D1C27905
:10022000002A05D1027A002A02D1427A002A03D09C
:100230000C8800229C4201D0100010BD082202311F
:10024000023007F045FE42424241D2B2F4E7C046D6
:1002500070B5040084B000F0E1FA4625A61C6B4698
:1002600002AA991D072000F0E3FA002855D0238840
:100270000399002B4DD1A278002A50D1E378002BAE
:1002800035D12279002A32D16279002A2FD1A27980
:10029000002A2CD1E279002A29D1227A002A26D1FB
:1002A000627A002A23D1E378002B11D12379002B25
:1002B0000ED16379002B0BD1A379002B08D1E37900
:1002C000002B05D1237A002B02D1637A002BC6D0F4
:1002D00000234A8D9A42C2D12C310822300007F007
:1002E000F7FD0028BBD16B46D88804B070BD4A5BCF
:1002F000002AD9D148310822300007F0E9FD002852
:10030000F1D023880399002BE3D1A278002ACAD028
:10031000DEE74A5B9A42DCD1ECE70348E5E74A5B5B
:10032000002AE7D0D5E7C046FFFF0000184B1A8827
:10033000824218D09A8982421CD01A8B82421BD0EA
:100340009A8C82421AD01A8E824219D09A8F824297
:1003500018D048229A5A824216D054229A5A82427F
:1003600014D00C487047002251008A1892009B1844
:100370005888F7E70122F7E70222F5E70322F3E7BF
:100380000422F1E70522EFE70622EDE70722EBE77B
:1003900040340020FFFF0000028803000120002AF3
:1003A00018D19A78002A15D1DA78002A12D11A7950
:1003B000002A0FD15A79002A0CD19A79002A09D142
:1003C000DA79002A06D11A7A002A03D1587A431E14
:1003D0009841C0B27047C04670B51C4B0D001978EB
:1003E0000400FEF7D5FF002800D170BD184A5388DD
:1003F000A3421CD0D389A3421BD0538BA3421AD053
:10040000D38CA34219D0538EA34218D0D38FA342CA
:1004100017D04A23D35AA34215D05623D35AA34206
:10042000E3D107235900CB189B00D552DDE7002309
:10043000F8E70123F6E70223F4E70323F2E70423B6
:10044000F0E70523EEE70623ECE7C046A7340020DB
:100450004034002070B5394C238883421BD0A389D7
:1004600083424FD0238B83424ED0A38C83424DD006
:10047000238E83424CD0A38F83424BD04823E35A30
:10048000834249D05423E35A834247D000F05CFFB3
:100490000500280070BD00235A00D3189B00E31804
:1004A0005E8800F051FF264B05009E42F1D00028E7
:1004B000EFD1244B30001978FEF76AFF0028E8D00E
:1004C0006388B3422ED0E389B34229D0638BB34211
:1004D00030D0E38CB3422BD0638EB34226D0E38F6F
:1004E000B34221D04A23E35AB34225D05623E35ADC
:1004F000B342CED107235A00D31801229B005242A7
:10050000E252C6E70123C7E70223C5E70323C3E797
:100510000423C1E70523BFE70623BDE70723BBE7A5
:100520000123E8E70023E6E70523E4E70423E2E705
:100530000323E0E70223DEE70623DCE74034002064
:10054000FFFF0000A7340020F0B5474680B4224DDD
:100550008AB00822002101A8FAF75AFE280001F00B
:100560008DFF2E000400A84209D12CE0200001F0EC
:1005700033FF200001F082FF0400B04223D0174B6C
:1005800001AAE518ADB203A9280005F0B7FD0A28B5
:10059000ECD0134E3778002F15D101232800984650
:1005A000337005F009FD082811D000280BD009226E
:1005B00006AB1A700990F632180037705C801A7119
:1005C000089700F0A9FB0AB004BC9046F0BD424673
:1005D000044B1A70F7E7C046FFFF000000C0FFFFA2
:1005E000B1340020B034002070B5416886B04B4271
:1005F0004B4102780593052A09D8444C9300E358EF
:100600009F46082302AA1000137000F085FB404C9F
:100610002378002B03D000232370FFF795FF06B04B
:1006200070BD8022D201944683893A4A63449BB2CA
:100630009342ECD8C289002AE9D102AA5380FF2252
:1006400002A8027100295AD0072302AA13700023BE
:100650002F4C314A23701370FFF776FF02A800F089
:100660005BFBD5E78022D20194468389294C634401
:100670009BB2C289A3422DD802AC638022710523AC
:10068000002900D1033B02AA137083681000019374
:10069000049300F041FB1E4CBAE78024E401A44619
:1006A00083891C4D63449BB2C489AB421AD802AD06
:1006B0006B802C71012A1DD0012300291DD102AAB3
:1006C0001370836802A805910193049300F024FB42
:1006D0000F4C9DE78025ED015519ADB2A54200D91B
:1006E00095E7C9E78026F601A619B6B2AE4200D951
:1006F0008DE7DCE700230029E1D00333DFE7F93A97
:100700000270180001F068FEA1E7C0467481020083
:10071000B0340020FE3F0000B134002010B519486D
:100720008AB005F0A7F90323002802D018000AB008
:1007300010BD05F0B1F904230028F7D101F000FE47
:100740000822002105A8FAF763FD11E003A907A814
:1007500005F028FB039B07A801939C888023DB01FD
:100760009C466444A4B205F045FB200001F0FEFD68
:1007700005AA07A9044805F0A5FC0028E6D0002337
:10078000D4E7C046E905020007C00000F0B54746BF
:1007900080B4040088B00E00170098460725FF2893
:1007A00004D9280008B004BC9046F0BD012902D04D
:1007B0000B1F042BF5D80822002103A8FAF728FD07
:1007C000154B05AA9C46F118644489B2A0B203AB4C
:1007D00005F05CFC05250028E3D103A905A805F078
:1007E000E1FA0028DDD1039BBE7001935A8843468D
:1007F0003A80002B0DD01B68920004259A42D0D37A
:100800000499786807F073FB05A805F0F3FA002552
:10081000C7E7049B7B60F7E700C0FFFF10B5082225
:1008200000210248FAF7F4FC10BDC046A8340020AD
:1008300070B5134B86B00400C0180E00150080B2CE
:10084000104A03A905F03EFC002802D0002006B0A3
:1008500070BD01A903A805F0A5FA0028F6D1019BF7
:10086000AC705A8803A82A80029A6A608022D2015A
:1008700094469B886344338005F0BCFA0120E6E788
:1008800000C0FFFFA834002010B583780A00012BB8
:1008900004D0043B042B01D907200CE00188100090
:1008A00005F0CEFA072809D0092803D0002803D084
:1008B000032000E0092010BD0020FCE70420FAE737
:1008C00000B583B0019001A805F0F2FA03005A1EAA
:1008D000934103205B42184003B000BDF0B58DB0DA
:1008E00001921F000722FF2802D910000DB0F0BDB1
:1008F0008B78012B02D01C1F042CF6D84C68098879
:1009000002AA9180234906AE8C4663449DB201231E
:1009100060440294726084B20822002104A83381EA
:1009200034807580FAF774FC04AB09AA2900200012
:1009300005F0ACFB002813D0019B002B22D1310025
:1009400009A805F0D9FA07281AD011D8002815D11E
:10095000002F1DD0390009A805F0ECFB0022C4E7E8
:1009600001A805F0A5FA310009A805F003FBEAE7A4
:10097000082801D00E2801D11122B6E70322B4E7DE
:100980000422B2E701AA310009A805F0D3FADAE798
:100990000022AAE700C0FFFF10B5024801F0E6FC04
:1009A00010BDC046FFFF000010B50723FF2801D986
:1009B000180010BD01F0FAFCFFF7C6FD0023F7E7B1
:1009C00010B501F01BFD10BD10B501F023FD10BDE9
:1009D00010B501F053FD10BDF0B55F464D464446DD
:1009E0005646F0B40D0085B00191040008220021A4
:1009F00002A8FAF70DFC02AB9D70944B9B461B8836
:100A0000A3422BD05B469B8AA34200D1E0E05B4629
:100A10001B8DA34200D1DDE05B469B8FA34200D13A
:100A2000EFE050235A46D35AA34200D1EBE06423AF
:100A3000D35AA34200D1E2E07823D35AA34200D193
:100A4000E3E08C23D35AA34200D1C5E0052005B0D2
:100A50003CBC90469946A246AB46F0BD00239D00A3
:100A6000EA1892005A44927801998A4200D1BBE078
:100A70008C235A46D35AA34200D1D4E0032306273D
:100A800099460133984601339C4607263B0065464C
:100A90005A465846022137009C4650320095838AB8
:100AA0004D1EA34222D00829D0D0038DA34272D07C
:100AB0004B46082BCAD0838FA34274D04346082BE1
:100AC000C4D01388A3426CD0009B082BBED0938A5D
